:020000040800F2
:100000000000032039140008751300087B13000852
:1000100081130008871300088D13000800000000FA
:100020000000000000000000000000009313000822
:10003000A113000800000000AF130008BD13000862
:10004000891400088914000889140008891400081C
:10005000891400088914000889140008891400080C
:1000600089140008891400088914000889140008FC
:1000700089140008891400088914000889140008EC
:1000800089140008C913000889140008891400089D
:1000900089140008891400088914000889140008CC
:1000A00089140008891400088914000889140008BC
:1000B00089140008DD130008891400088914000859
:1000C000891400088914000889140008891400089C
:1000D000891400088914000889140008891400088C
:1000E000F113000889140008891400088914000815
:1000F000891400088914000889140008891400086C
:10010000891400088914000889140008891400085B
:10011000891400088914000889140008891400084B
:10012000891400088914000889140008891400083B
:10013000891400088914000889140008891400082B
:10014000891400088914000889140008891400081B
:10015000891400088914000889140008891400080B
:1001600089140008891400088914000889140008FB
:100170008914000889140008891400080000000090
:1001800089140008891400088914000889140008DB
:1001900089140008891400088914000889140008CB
:0C01A00089140008891400088914000864
:1001AC0010B5054C237833B9044B13B10448AFF3A5
:1001BC0000800123237010BD1400002000000000FB
:1001CC00883D000808B5034B1BB103490348AFF346
:1001DC00008008BD0000000018000020883D0008C9
:1001EC0070B54FF0FF0C4CF4E06C1CEA11541DBFC1
:1001FC001CEA135594EA0C0F95EA0C0F00F0DEF88C
:10020C002C4481EA030621EA4C5123EA4C5350EA70
:10021C00013518BF52EA033541F4801143F48013C1
:10022C0038D0A0FB02CE4FF00005E1FB02E506F052
:10023C000042E0FB03E54FF00006E1FB03569CF0A7
:10024C00000F18BF4EF0010EA4F1FF04B6F5007FAD
:10025C0064F5407404D25FEA4E0E6D4146EB06061F
:10026C0042EAC62141EA55514FEAC52040EA5E50A8
:10027C004FEACE2EB4F1FD0C88BFBCF5E06F1ED852
:10028C00BEF1004F08BF5FEA500E50F1000041EB89
:10029C00045170BD06F0004646EA010140EA020036
:1002AC0081EA0301B4EB5C04C2BFD4EB0C0541EA58
:1002BC00045170BD41F480114FF0000E013C00F36D
:1002CC00AB8014F1360FDEBF002001F0004170BD91
:1002DC00C4F10004203C35DA0C341BDC04F11404AA
:1002EC00C4F1200500FA05F320FA04F001FA05F236
:1002FC0040EA020001F0004221F0004110EBD37003
:10030C0021FA04F642EB06015EEA430E08BF20EA2E
:10031C00D37070BDC4F10C04C4F1200500FA04F3D1
:10032C0020FA05F001FA04F240EA020001F0004163
:10033C0010EBD37041F100015EEA430E08BF20EAD6
:10034C00D37070BDC4F1200500FA05F24EEA020E1E
:10035C0020FA04F301FA05F243EA020321FA04F04D
:10036C0001F0004121FA04F220EA020000EBD37004
:10037C005EEA430E08BF20EAD37070BD94F0000F04
:10038C000FD101F00046400041EB010111F4801F38
:10039C0008BF013CF7D041EA060195F0000F18BFE9
:1003AC00704703F00046520043EB030313F4801F25
:1003BC0008BF013DF7D043EA0603704794EA0C0FDF
:1003CC000CEA135518BF95EA0C0F0CD050EA4106F5
:1003DC0018BF52EA4306D1D181EA030101F0004172
:1003EC004FF0000070BD50EA410606BF104619469A
:1003FC0052EA430619D094EA0C0F02D150EA0136A6
:10040C0013D195EA0C0F05D152EA03361CBF1046E6
:10041C0019460AD181EA030101F0004141F0FE4185
:10042C0041F470014FF0000070BD41F0FE4141F409
:10043C00780170BD81F0004102E000BF83F0004301
:10044C0030B54FEA41044FEA430594EA050F08BF63
:10045C0090EA020F1FBF54EA000C55EA020C7FEA27
:10046C00645C7FEA655C00F0E2804FEA5454D4EBA4
:10047C005555B8BF6D420CDD2C4480EA020281EA6E
:10048C00030382EA000083EA010180EA020281EAA6
:10049C000303362D88BF30BD11F0004F4FEA0131F8
:1004AC004FF4801C4CEA113102D0404261EB410107
:1004BC0013F0004F4FEA03334CEA133302D052428D
:1004CC0063EB430394EA050F00F0A780A4F1010449
:1004DC00D5F1200E0DDB02FA0EFC22FA05F2801883
:1004EC0041F1000103FA0EF2801843FA05F3594169
:1004FC000EE0A5F120050EF1200E012A03FA0EFCE8
:10050C0028BF4CF0020C43FA05F3C01851EBE37111
:10051C0001F0004507D54FF0000EDCF1000C7EEB2E
:10052C0000006EEB0101B1F5801F1BD3B1F5001F6C
:10053C000CD349085FEA30004FEA3C0C04F101048B
:10054C004FEA445212F5800F80F09A80BCF1004FB4
:10055C0008BF5FEA500C50F1000041EB045141EA36
:10056C00050130BD5FEA4C0C404141EB0101013CFF
:10057C0028BFB1F5801FE9D291F0000F04BF0146EE
:10058C000020B1FA81F308BF2033A3F10B03B3F1C0
:10059C0020020CDA0C3208DD02F1140CC2F10C0250
:1005AC0001FA0CF021FA02F10CE002F11402D8BFAE
:1005BC00C2F1200C01FA02F120FA0CFCDCBF41EA7A
:1005CC000C019040E41AA2BF01EB0451294330BD49
:1005DC006FEA04041F3C1CDA0C340EDC04F1140426
:1005EC00C4F1200220FA04F001FA02F340EA0300FD
:1005FC0021FA04F345EA030130BDC4F10C04C4F143
:10060C00200220FA02F001FA04F340EA0300294622
:10061C0030BD21FA04F0294630BD94F0000F83F46C
:10062C00801306BF81F480110134013D4EE77FEA4F
:10063C00645C18BF7FEA655C29D094EA050F08BF9B
:10064C0090EA020F05D054EA000C04BF194610467C
:10065C0030BD91EA030F1EBF0021002030BD5FEAC0
:10066C00545C05D14000494128BF41F0004130BDE8
:10067C0014F580043CBF01F5801130BD01F000453C
:10068C0045F0FE4141F470014FF0000030BD7FEAAF
:10069C00645C1ABF194610467FEA655C1CBF0B46AA
:1006AC00024650EA013406BF52EA033591EA030FC1
:1006BC0041F4002130BD00BF90F0000F04BF0021B9
:1006CC00704730B54FF4806404F132044FF00005EC
:1006DC004FF0000150E700BF90F0000F04BF002165
:1006EC00704730B54FF4806404F1320410F00045CB
:1006FC0048BF40424FF000013EE700BF42004FEAC6
:10070C00E2014FEA31014FEA02701FBF12F07F4342
:10071C0093F07F4F81F06051704732F07F4208BFF9
:10072C00704793F07F4F04BF41F40021704730B500
:10073C004FF4607401F0004521F000411CE700BF4C
:10074C0050EA010208BF704730B54FF000050AE0CF
:10075C0050EA010208BF704730B511F0004502D5D0
:10076C00404261EB41014FF4806404F132045FEAD2
:10077C00915C3FF4D8AE4FF003025FEADC0C18BF7B
:10078C0003325FEADC0C18BF033202EBDC02C2F16D
:10079C00200300FA03FC20FA02F001FA03FE40EAFF
:1007AC000E0021FA02F11444BDE600BF4FEA4102EB
:1007BC00B2F1E04324BFB3F5001CDCF1FE5C0DD9B3
:1007CC0001F0004C4FEAC0024CEA5070B2F1004FFD
:1007DC0040EB830008BF20F00100704711F0804F00
:1007EC0021D113F13872BCBF01F00040704741F4C5
:1007FC0080114FEA5252C2F11802C2F1200C10FAC9
:10080C000CF320FA02F018BF40F001004FEAC123AC
:10081C004FEAD32303FA0CFC40EA0C0023FA02F350
:10082C004FEA4303CCE77FEA625307D150EA013326
:10083C001EBF4FF0FE4040F44000704701F00040F6
:10084C0040F0FE4040F40000704700BF53B94AB975
:10085C00002908BF00281CBF4FF0FF314FF0FF30BC
:10086C0000F070B9ADF1080C6DE904CE00F006F89B
:10087C00DDF804E0DDE9022304B070472DE9F04710
:10088C00089E0D4604460F46002B4AD18A429446D8
:10089C0065D9B2FA82F343B102FA03FCC3F1200228
:1008AC009F4020FA02F217439C404FEA1C4E1FFA5D
:1008BC008CF5B7FBFEF1220C0EFB117742EA0742D6
:1008CC0001FB05F090420AD91CEB020201F1FF3743
:1008DC0080F01C81904240F2198102396244121A54
:1008EC00A4B2B2FBFEF00EFB102244EA024400FB61
:1008FC0005F5A5420AD91CEB040400F1FF3280F087
:10090C000781A54240F204816444023840EA014068
:10091C00641B00211EB1DC400023C6E90043BDE886
:10092C00F0878B4208D9002E00F0ED800021C6E93B
:10093C0000050846BDE8F087B3FA83F1002949D1D8
:10094C00AB4202D3824200F2F880841A65EB0302B8
:10095C0001201746002EE2D0C6E90047DFE702B9B6
:10096C00FFDEB2FA82F3002B40F090808A1A4FEA35
:10097C001C471FFA8CFE0121B2FBF7F507FB152073
:10098C00220C42EA00420EFB05F0904208D91CEB07
:10099C00020205F1FF3802D2904200F2CB804546AC
:1009AC00121AA4B2B2FBF7F007FB102244EA02447D
:1009BC000EFB00FEA64508D91CEB040400F1FF3227
:1009CC0002D2A64500F2BB801046A4EB0E0440EA0E
:1009DC0005409FE7C1F120078B4022FA07FC4CEA47
:1009EC00030C05FA01F420FA07F3FD404FEA1C4909
:1009FC002343B5FBF9F81FFA8CFE09FB18551C0CA8
:100A0C0044EA054408FB0EF5A54202FA01F200FA8D
:100A1C0001F00BD91CEB040408F1FF3A80F088803C
:100A2C00A54240F28580A8F102086444641B9DB283
:100A3C00B4FBF9F309FB134445EA044403FB0EFE33
:100A4C00A64508D91CEB040403F1FF356CD2A6456E
:100A5C006AD9023B644443EA0843A3FB0295A4EB26
:100A6C000E04AC42C846AE4656D353D056B1B0EB8A
:100A7C00080264EB0E0404FA07F7CA40CC40174393
:100A8C00C6E9007418460021BDE8F087C3F12001C7
:100A9C0002FA03FC20FA01F225FA01F19D402A43E7
:100AAC004FEA1C471FFA8CFEB1FBF7F007FB101541
:100ABC00110C41EA054100FB0EF58D4204FA03F4DA
:100ACC0008D91CEB010100F1FF382FD28D422DD932
:100ADC0002386144491B92B2B1FBF7F507FB1511C3
:100AEC0042EA014205FB0EF1914208D91CEB0202CD
:100AFC0005F1FF3816D2914214D9023D6244521AC4
:100B0C0045EA004138E73146304608E73946E6E623
:100B1C001046FBE64845A9D2B9EB020865EB0C0E72
:100B2C00013BA3E74546EAE72B4694E74046D1E76D
:100B3C00D0467BE7023D624432E708460AE764444C
:100B4C00023842E7704700BF80B584B000AF7860D0
:100B5C00334BFB60334800F049FD4FF0FF31314817
:100B6C0000F016FE2F4800F09EFE07EE900AB8EE3D
:100B7C00677A2D4BD3ED007A77EE677A2B4BC3ED6A
:100B8C00007A2A4B93ED007AD7ED037A27EE277A79
:100B9C00274BD3ED007A77EE277A264BC3ED007AFC
:100BAC00244B1B68224A1360234B1B681846FFF723
:100BBC00A5FD02460B46FFF743FC02460B461046CA
:100BCC0019464FF000021D4BFFF70AFB02460B467D
:100BDC0010461946FFF7EAFD0346194A1360154BF8
:100BEC0093ED007A164BD3ED007A27EE277A0E4B55
:100BFC00D3ED007A77EE277A0E4BC3ED007A0D4BCE
:100C0C00D3ED007AFCEEE77A17EE903A0022102131
:100C1C000C4801F008FA00BF1037BD4680BD00BF7C
:100C2C00BD370638300000200400002038010020B9
:100C3C00400100203C010020000000200000894001
:100C4C00440100207800002080B500AF00F018FCB3
:100C5C0000F02CF800F064F900F098F800F0E8F8D7
:100C6C0000F010F90D4B00221A600AE00B4B1B68C8
:100C7C000B4A002142F82310084B1B680133074A2A
:100C8C001360064B1B680E2BF0DD1021054801F09C
:100C9C0078F9054802F014FCFEE700BF340100208F
:100CAC004C01002078000020EC00002080B594B0AE
:100CBC0000AF07F1200330220021184603F032F870
:100CCC0007F10C0300221A605A609A60DA601A610C
:100CDC000023BB602B4B1B6C2A4A43F080531364DC
:100CEC00284B1B6C03F08053BB60BB6800237B60FC
:100CFC00254B1B68244A43F440431360224B1B686A
:100D0C0003F440437B607B6802233B620123FB625C
:100D1C0010233B630223BB630023FB6308233B6468
:100D2C00B4237B640223BB640423FB6407F120031C
:100D3C00184601F011FF0346002B01D000F002FA17
:100D4C0001F0BAFE0346002B01D000F0FBF90F2393
:100D5C00FB6002233B6100237B614FF4A053BB611A
:100D6C004FF48053FB6107F10C030521184602F088
:100D7C006BF90346002B01D000F0E4F900BF5037AB
:100D8C00BD4680BD003802400070004080B584B084
:100D9C0000AF3B4600221A605A609A60DA60214B21
:100DAC00214A1A601F4B4FF480325A601D4B0022AF
:100DBC009A601C4B00221A611A4B00221A76194BAE
:100DCC00002283F82020174B0022DA62154B174AB9
:100DDC009A62144B0022DA60124B0122DA61114B39
:100DEC00002283F830200F4B01225A610D4800F08D
:100DFC00B9FB0346002B01D000F0A4F900233B60A3
:100E0C0001237B600023BB603B461946054800F07C
:100E1C0057FD0346002B01D000F094F900BF1037AA
:100E2C00BD4680BD30000020002001400100000FB5
:100E3C0080B582B000AF3B4600221A605A600F4B5F
:100E4C000F4A1A600D4801F07AF80346002B01D0C6
:100E5C0000F078F900233B6000237B603B461022B6
:100E6C001946064801F004F90346002B01D000F0A6
:100E7C0069F900BF0837BD4680BD00BF780000206F
:100E8C000074004080B586B000AF07F10803002263
:100E9C001A605A609A60DA603B4600221A605A6007
:100EAC001D4B1E4A1A601C4B05225A601A4B00221D
:100EBC009A60194B40F2DB22DA60174B00221A6160
:100ECC00154B00229A61144802F0AAFA0346002B33
:100EDC0001D000F037F94FF48053BB6007F10803E1
:100EEC0019460D4802F064FC0346002B01D000F0BB
:100EFC0029F900233B6000237B603B4619460648DA
:100F0C0002F080FE0346002B01D000F01BF900BF5D
:100F1C001837BD4680BD00BFEC0000200004004027
:100F2C0080B58CB000AF07F11C0300221A605A6028
:100F3C009A60DA601A610023BB617B4B1B6B7A4AA7
:100F4C0043F020031363784B1B6B03F02003BB614E
:100F5C00BB6900237B61744B1B6B734A43F08003AA
:100F6C001363714B1B6B03F080037B617B69002364
:100F7C003B616D4B1B6B6C4A43F0040313636A4B70
:100F8C001B6B03F004033B613B690023FB60664B66
:100F9C001B6B654A43F001031363634B1B6B03F03C
:100FAC000103FB60FB680023BB605F4B1B6B5E4A5D
:100FBC0043F0020313635C4B1B6B03F00203BB6037
:100FCC00BB6800237B60584B1B6B574A43F00803EC
:100FDC001363554B1B6B03F008037B607B6800238A
:100FEC003B60514B1B6B504A43F0400313634E4B19
:100FFC001B6B03F040033B603B68012204214B4810
:10100C0001F01CFD00224FF44051494801F016FD3F
:10101C0000224FF4C041474801F010FD4FF46073BB
:10102C00FB6102233B6200237B620323BB6205232B
:10103C00FB6207F11C0319463F4801F053FB0423E4
:10104C00FB6101233B6200237B620323BB6207F13C
:10105C001C031946354801F045FB0423FB610023B2
:10106C003B6201237B6207F11C031946334801F0F4
:10107C0039FB4FF44053FB6101233B6200237B623D
:10108C000323BB6207F11C031946294801F02AFB14
:10109C004FF40073FB6112233B6200237B6202233B
:1010AC00BB620423FB6207F11C0319461F4801F0C5
:1010BC0019FB4FF48073FB6112233B6200237B62AC
:1010CC000223BB620423FB6207F11C0319461C4874
:1010DC0001F008FB4FF40043FB614FF404133B6237
:1010EC0001237B6207F11C031946154801F0FAFA3B
:1010FC004FF4C043FB6101233B6200237B6200235E
:10110C00BB6207F11C0319460A4801F0EBFA0022F6
:10111C000021282000F0DDFE282000F0F6FE00BFA4
:10112C003037BD4680BD00BF003802400008024089
:10113C00000C02400018024000140240000402405F
:10114C000000024080B400AF72B600BFFEE70000A2
:10115C0080B483B000AF00237B60104B5B6C0F4AF4
:10116C0043F4804353640D4B5B6C03F480437B600E
:10117C007B6800233B60094B1B6C084A43F080538F
:10118C001364064B1B6C03F080533B603B6800BF41
:10119C000C37BD465DF8047B704700BF0038024039
:1011AC0080B58AB000AF786007F1140300221A6092
:1011BC005A609A60DA601A617B681B68174A93421E
:1011CC0027D100233B61164B5B6C154A43F48073AB
:1011DC005364134B5B6C03F480733B613B690023DA
:1011EC00FB600F4B1B6B0E4A43F0010313630C4B5C
:1011FC001B6B03F00103FB60FB6801237B61032382
:10120C00BB610023FB6107F114031946054801F08B
:10121C0069FA00BF2837BD4680BD00BF00200140E1
:10122C00003802400000024080B58AB000AF786000
:10123C0007F1140300221A605A609A60DA601A618E
:10124C007B681B682F4A934257D100233B612E4B7E
:10125C001B6C2D4A43F0005313642B4B1B6C03F097
:10126C0000533B613B690023FB60274B1B6B264AF9
:10127C0043F001031363244B1B6B03F00103FB606E
:10128C00FB6830237B610323BB610023FB6107F107
:10129C00140319461D4801F025FA1D4B1D4A1A600E
:1012AC001B4B4FF060625A60194B40229A60184BEE
:1012BC000022DA60164B4FF480621A61144B4FF423
:1012CC0000625A61124B4FF400529A61104B00228B
:1012DC00DA610F4B00221A620D4B00225A620C4845
:1012EC0000F016FF0346002B01D0FFF72BFF7B68A5
:1012FC00074ADA60064A7B68936300BF2837BD460D
:10130C0080BD00BF00740040003802400000024065
:10131C008C000020A060024080B584B000AF7860E3
:10132C007B681B680E4A934215D10023FB600D4B62
:10133C001B6C0C4A43F0020313640A4B1B6C03F046
:10134C000203FB60FB68002200211D2000F0C1FDA0
:10135C001D2000F0DAFD00BF1037BD4680BD00BF78
:10136C00000400400038024080B400AFFEE780B4B7
:10137C0000AFFEE780B400AFFEE780B400AFFEE73D
:10138C0080B400AFFEE780B400AF00BFBD465DF88F
:10139C00047B704780B400AF00BFBD465DF8047B92
:1013AC00704780B400AF00BFBD465DF8047B70474A
:1013BC0080B500AF00F0B6F800BF80BD80B500AFBF
:1013CC00024800F053FF00BF80BD00BF8C0000201E
:1013DC0080B500AF024802F0E3F800BF80BD00BF4B
:1013EC00EC00002080B500AF064B1B68002B02D12F
:1013FC00044B01221A604FF4004001F039FB00BF8E
:10140C0080BD00BF4801002080B400AF064BD3F86C
:10141C008830054A43F47003C2F8883000BFBD46DB
:10142C005DF8047B704700BF00ED00E0DFF834D0BE
:10143C000D480E490E4A002302E0D458C450043320
:10144C00C4188C42F9D30B4A0B4C002301E01360F7
:10145C000432A242FBD3FFF7D7FF02F06BFCFFF77D
:10146C00F3FB704700000320000000201400002054
:10147C00C83D00081400002018020020FEE7000000
:10148C0080B500AF0E4B1B680D4A43F4007313601C
:10149C000B4B1B680A4A43F480631360084B1B68B0
:1014AC00074A43F480731360032000F007FD0F20FC
:1014BC0000F008F8FFF74CFE0023184680BD00BF73
:1014CC00003C024080B582B000AF7860124B1A68C5
:1014DC00124B1B7819464FF47A73B3FBF1F3B2FB42
:1014EC00F3F3184600F01FFD0346002B01D0012337
:1014FC000EE07B680F2B0AD8002279684FF0FF3082
:10150C0000F0E7FC064A7B681360002300E001232F
:10151C0018460837BD4680BD08000020100000208A
:10152C000C00002080B400AF064B1B781A46064B0B
:10153C001B681344044A136000BFBD465DF8047B6E
:10154C00704700BF100000201402002080B400AFD0
:10155C00034B1B681846BD465DF8047B704700BF03
:10156C001402002080B584B000AF78600023FB73B8
:10157C007B68002B01D1012333E07B681B6C002BB3
:10158C0009D17868FFF70CFE7B6800225A647B68EF
:10159C00002283F83C207B681B6C03F01003002BAB
:1015AC0018D17B681B6C23F4885323F0020343F09F
:1015BC0002027B681A64786800F0B4FA7B68002237
:1015CC005A647B681B6C23F0030343F001027B68B5
:1015DC001A6401E00123FB737B68002283F83C2032
:1015EC00FB7B18461037BD4680BD000080B485B02B
:1015FC0000AF78600023BB607B6893F83C30012B14
:10160C0001D10223B2E07B68012283F83C207B6885
:10161C001B689B6803F00103012B18D07B681B68C7
:10162C009A687B681B6842F001029A60524B1B68F7
:10163C00524AA2FB03239A0C13465B001344BB6073
:10164C0002E0BB68013BBB60BB68002BF9D17B6837
:10165C001B689B6803F00103012B7AD17B681B6C20
:10166C0023F4E06323F0010343F480727B681A6473
:10167C007B681B685B6803F48063002B07D07B6876
:10168C001B6C23F4405343F480527B681A647B68D0
:10169C001B6C03F48053B3F5805F06D17B685B6CE5
:1016AC0023F006027B685A6402E07B6800225A64CD
:1016BC007B68002283F83C20314BFB607B681B6805
:1016CC006FF022021A60FB685B6803F01F03002BAB
:1016DC002AD17B681B682B4A934215D07B681B6808
:1016EC00294A934205D1264B5B6803F01F03002B5C
:1016FC000AD07B681B68254A934236D1204B5B6825
:10170C0003F01003002B30D17B681B689B6803F03F
:10171C004053002B29D17B681B689A687B681B6837
:10172C0042F080429A6020E07B681B68154A934225
:10173C001BD17B681B689B6803F04053002B14D1B2
:10174C007B681B689A687B681B6842F080429A60D1
:10175C000BE07B681B6C43F010027B681A647B689F
:10176C005B6C43F001027B685A6400231846143703
:10177C00BD465DF8047B70470800002083DE1B43E8
:10178C0000230140002001400021014000220140C3
:10179C0080B584B000AF786039600023FB607B6853
:1017AC001B689B6803F48063B3F5806F13D17B686F
:1017BC001B689B6803F48073B3F5807F0BD17B6847
:1017CC001B6C43F020027B681A647B68002283F850
:1017DC003C20012363E0FFF7B9FEF86021E03B6891
:1017EC00B3F1FF3F1DD03B68002B07D0FFF7AEFED7
:1017FC000246FB68D31A3A689A4212D27B681B687D
:10180C001B6803F00203022B0BD07B681B6C43F0AC
:10181C0004027B681A647B68002283F83C20032353
:10182C003DE07B681B681B6803F00203022BD6D1DA
:10183C007B681B686FF012021A607B681B6C43F4A8
:10184C0000727B681A647B681B689B6803F04053CA
:10185C00002B23D17B681B7E002B1FD17B681B6860
:10186C00DB6A03F47003002B06D07B681B689B6853
:10187C0003F48063002B11D17B681B6C23F4807202
:10188C007B681A647B681B6C03F48053002B05D1B6
:10189C007B681B6C43F001027B681A6400231846BA
:1018AC001037BD4680BD80B483B000AF78607B68D4
:1018BC001B68DB6C18460C37BD465DF8047B704723
:1018CC0080B485B000AF786039600023BB607B6862
:1018DC0093F83C30012B01D1022313E17B680122E8
:1018EC0083F83C203B681B68092B25D97B681B6857
:1018FC00D9683B681B689BB21A4613465B001344BD
:10190C001E3B072202FA03F3DA437B681B680A408A
:10191C00DA607B681B68D9683B689A683B681B680F
:10192C009BB2184603465B0003441E3B9A407B68FF
:10193C001B680A43DA6022E07B681B6819693B6804
:10194C001B689BB21A4613465B001344072202FA2B
:10195C0003F3DA437B681B680A401A617B681B68D7
:10196C0019693B689A683B681B689BB2184603462A
:10197C005B0003449A407B681B680A431A613B680E
:10198C005B68062B24D87B681B68596B3B685A68CC
:10199C0013469B001344053B1F2202FA03F3DA4360
:1019AC007B681B680A405A637B681B68596B3B68F1
:1019BC001B689BB218463B685A6813469B0013443D
:1019CC00053B00FA03F27B681B680A435A634CE040
:1019DC003B685B680C2B24D87B681B68196B3B68D5
:1019EC005A6813469B001344233B1F2202FA03F34D
:1019FC00DA437B681B680A401A637B681B68196BA7
:101A0C003B681B689BB218463B685A6813469B00A0
:101A1C001344233B00FA03F27B681B680A431A63E6
:101A2C0023E07B681B68D96A3B685A6813469B00A5
:101A3C001344413B1F2202FA03F3DA437B681B6811
:101A4C000A40DA627B681B68D96A3B681B689BB2E8
:101A5C0018463B685A6813469B001344413B00FAF6
:101A6C0003F27B681B680A43DA62294BFB607B68D4
:101A7C001B68284A93420FD13B681B68122B0BD171
:101A8C00FB685B6823F40002FB685A60FB685B68C8
:101A9C0043F48002FB685A607B681B681D4A9342C2
:101AAC002BD13B681B681C4A934203D03B681B68D4
:101ABC00112B22D1FB685B6823F48002FB685A600F
:101ACC00FB685B6843F40002FB685A603B681B6868
:101ADC00114A934211D1114B1B68114AA2FB0323EB
:101AEC009A0C13469B0013445B00BB6002E0BB687E
:101AFC00013BBB60BB68002BF9D17B68002283F8EB
:101B0C003C20002318461437BD465DF8047B704713
:101B1C0000230140002001401200001008000020AA
:101B2C0083DE1B4380B485B000AF7860794BFB60DB
:101B3C00FB685B6823F44032FB685A60FB685A68A8
:101B4C007B685B681A43FB685A607B681B685A6841
:101B5C007B681B6822F480725A607B681B6859682A
:101B6C007B681B691A027B681B680A435A607B6896
:101B7C001B685A687B681B6822F040725A607B684D
:101B8C001B6859687B689A687B681B680A435A60B3
:101B9C007B681B689A687B681B6822F400629A60F9
:101BAC007B681B6899687B68DA687B681B680A43EA
:101BBC009A607B689B6A584A934222D07B681B6868
:101BCC009A687B681B6822F070629A607B681B685D
:101BDC0099687B689A6A7B681B680A439A607B6881
:101BEC001B689A687B681B6822F040529A607B687D
:101BFC001B6899687B68DA6A7B681B680A439A6081
:101C0C000FE07B681B689A687B681B6822F0706227
:101C1C009A607B681B689A687B681B6822F040524C
:101C2C009A607B681B689A687B681B6822F00202CA
:101C3C009A607B681B6899687B681B7E5A007B687E
:101C4C001B680A439A607B6893F82030002B1BD0EA
:101C5C007B681B685A687B681B6842F400625A6098
:101C6C007B681B685A687B681B6822F460425A6068
:101C7C007B681B6859687B685B6A013B5A037B680D
:101C8C001B680A435A6007E07B681B685A687B68CC
:101C9C001B6822F400625A607B681B68DA6A7B68F6
:101CAC001B6822F47002DA627B681B68D96A7B6855
:101CBC00DB69013B1A057B681B680A43DA627B68A7
:101CCC001B689A687B681B6822F400729A607B68B8
:101CDC001B6899687B6893F830305A027B681B68E4
:101CEC000A439A607B681B689A687B681B6822F4BD
:101CFC0080629A607B681B6899687B685B699A0252
:101D0C007B681B680A439A6000BF1437BD465DF8B8
:101D1C00047B7047002301400100000F80B485B0A4
:101D2C0000AF78607B6803F00703FB600C4BDB684B
:101D3C00BB60BA684FF6FF031340BB60FB681A0226
:101D4C00BB68134343F0BF6343F40033BB60044AE6
:101D5C00BB68D36000BF1437BD465DF8047B704789
:101D6C0000ED00E080B400AF044BDB681B0A03F00D
:101D7C0007031846BD465DF8047B704700ED00E094
:101D8C0080B483B000AF0346FB7197F90730002B8A
:101D9C000BDBFB7903F01F02074997F907305B094E
:101DAC00012000FA02F241F8232000BF0C37BD4697
:101DBC005DF8047B704700BF00E100E080B483B0A5
:101DCC0000AF03463960FB7197F90730002B0ADB33
:101DDC003B68DAB20C4997F907301201D2B20B44C6
:101DEC0083F800230AE03B68DAB20849FB7903F078
:101DFC000F03043B1201D2B20B441A7600BF0C370E
:101E0C00BD465DF8047B704700E100E000ED00E0AA
:101E1C0080B489B000AFF860B9607A60FB6803F0F9
:101E2C000703FB61FB69C3F10703042B28BF0423E1
:101E3C00BB61FB690433062B02D9FB69033B00E051
:101E4C0000237B614FF0FF32BB6902FA03F3DA43E4
:101E5C00BB681A407B699A404FF0FF317B6901FAED
:101E6C0003F3D9437B680B40134318462437BD4614
:101E7C005DF8047B7047000080B582B000AF7860DD
:101E8C007B68013BB3F1807F01D301230FE00A4A49
:101E9C007B68013B53600F214FF0FF30FFF78EFF43
:101EAC00054B00229A60044B07221A600023184647
:101EBC000837BD4680BD00BF10E000E080B582B0A1
:101ECC0000AF78607868FFF729FF00BF0837BD4680
:101EDC0080BD80B586B000AF0346B9607A60FB73F5
:101EEC0000237B61FFF73EFF78617A68B9687869F7
:101EFC00FFF78EFF024697F90F3011461846FFF791
:101F0C005DFF00BF1837BD4680BD80B582B000AF05
:101F1C000346FB7197F907301846FFF731FF00BFF6
:101F2C000837BD4680BD80B582B000AF7860786858
:101F3C00FFF7A2FF034618460837BD4680BD80B5A3
:101F4C0082B000AF78607B68002B01D1012314E0D4
:101F5C007B681B79DBB2002B05D17B6800225A71A0
:101F6C007868FFF761F97B6802221A717B6800229E
:101F7C001A617B6801221A71002318460837BD4686
:101F8C0080BD80B483B000AF786039607B685B79CA
:101F9C00012B01D1022340E07B6801225A717B683E
:101FAC0002221A717B681B6819683B6803F01003E6
:101FBC0001229A407B681B680A431A603B68002B1D
:101FCC000FD17B681B681B6803F03C033C2B1DD1B5
:101FDC007B681B685A687B681B6842F001025A6078
:101FEC0014E07B681B681B6803F470123B6803F0F9
:101FFC0010033C2101FA03F39A4207D17B681B685A
:10200C005A687B681B6842F002025A607B680122A6
:10201C001A717B6800225A71002318460C37BD4692
:10202C005DF8047B704780B487B000AFF860B9608E
:10203C007A603B6000237B61FB681B687B61BB683B
:10204C00002B05D17A697B68134408337B6104E06B
:10205C007A697B68134414337B617B691A463B684D
:10206C001360002318461C37BD465DF8047B70478F
:10207C0080B487B000AFF860B9607A60FB685B79B8
:10208C00012B01D102233CE0FB6801225A71FB6851
:10209C0002221A71FB681B681B687B617B6803F06A
:1020AC00100340F6FE7202FA03F3DB437A69134025
:1020BC007B61BB681A68BB685B6813433B617B68D8
:1020CC0003F010033A6902FA03F37A6913437B6154
:1020DC00FB681B687A691A60FB681B6819687B6867
:1020EC0003F01003C02202FA03F3DA43FB681B6807
:1020FC000A401A60FB6801221A71FB6800225A71AF
:10210C00002318461C37BD465DF8047B7047000061
:10211C0080B586B000AF786000237B61FFF716FABC
:10212C0038617B68002B01D1012399E07B68022286
:10213C0083F835207B68002283F834207B681B6889
:10214C001A687B681B6822F001021A600FE0FFF727
:10215C00FDF902463B69D31A052B08D97B6820226E
:10216C005A657B68032283F83520032378E07B686B
:10217C001B681B6803F00103002BE8D17B681B680C
:10218C001B687B617A69384B13407B617B685A68AA
:10219C007B689B681A437B68DB681A437B681B6906
:1021AC001A437B685B691A437B689B691A437B689B
:1021BC00DB691A437B681B6A13437A6913437B619F
:1021CC007B685B6A042B07D17B68DA6A7B681B6BC4
:1021DC0013437A6913437B617B681B687A691A60C5
:1021EC007B681B685B697B617B6923F007037B6100
:1021FC007B685B6A7A6913437B617B685B6A042B3F
:10220C0017D17B689B6A7A6913437B617B68DB6AB5
:10221C00002B0ED0786800F0E9F90346002B08D0AB
:10222C007B6840225A657B68012283F835200123A4
:10223C0016E07B681B687A695A61786800F0A0F92F
:10224C000346FB607B68DB6D3F229A40FB689A601B
:10225C007B6800225A657B68012283F835200023B5
:10226C0018461837BD4680BD3F8010F080B586B04B
:10227C0000AF78600023BB608E4B1B688E4AA2FBBC
:10228C0003239B0A7B617B689B6D3B613B691B68ED
:10229C00FB607B68DB6D08229A40FB681340002BC7
:1022AC001AD07B681B681B6803F00403002B13D047
:1022BC007B681B681A687B681B6822F004021A6032
:1022CC007B68DB6D08229A403B699A607B685B6D8A
:1022DC0043F001027B685A657B68DB6D01229A40F2
:1022EC00FB681340002B12D07B681B685B6903F002
:1022FC008003002B0BD07B68DB6D01229A403B697D
:10230C009A607B685B6D43F002027B685A657B6860
:10231C00DB6D04229A40FB681340002B12D07B68C3
:10232C001B681B6803F00203002B0BD07B68DB6D72
:10233C0004229A403B699A607B685B6D43F004020F
:10234C007B685A657B68DB6D10229A40FB681340F2
:10235C00002B43D07B681B681B6803F00803002B21
:10236C003CD07B68DB6D10229A403B699A607B689D
:10237C001B681B6803F48023002B18D07B681B6838
:10238C001B6803F40023002B08D17B681B6C002B0B
:10239C0024D07B681B6C786898471FE07B689B6C2B
:1023AC00002B1BD07B689B6C7868984716E07B6889
:1023BC001B681B6803F48073002B07D17B681B68B8
:1023CC001A687B681B6822F008021A607B681B6C19
:1023DC00002B03D07B681B6C786898477B68DB6D9F
:1023EC0020229A40FB681340002B00F08F807B6802
:1023FC001B681B6803F01003002B00F087807B68C0
:10240C00DB6D20229A403B699A607B6893F83530EB
:10241C00DBB2052B36D17B681B681A687B681B689E
:10242C0022F016021A607B681B685A697B681B686D
:10243C0022F080025A617B681B6C002B03D17B68F5
:10244C009B6C002B07D07B681B681A687B681B6829
:10245C0022F008021A607B68DB6D3F229A403B69D0
:10246C009A607B68012283F835207B68002283F810
:10247C0034207B681B6D002B7ED07B681B6D7868CD
:10248C00984779E07B681B681B6803F48023002B5A
:10249C001DD07B681B681B6803F40023002B0DD137
:1024AC007B685B6C002B31D07B685B6C78689847E1
:1024BC002CE000BF08000020B5814E1B7B68DB6B55
:1024CC00002B23D07B68DB6B786898471EE07B6819
:1024DC001B681B6803F48073002B0FD17B681B688F
:1024EC001A687B681B6822F010021A607B68012254
:1024FC0083F835207B68002283F834207B68DB6B03
:10250C00002B03D07B68DB6B786898477B685B6D2E
:10251C00002B32D07B685B6D03F00103002B22D0C3
:10252C007B68052283F835207B681B681A687B68FA
:10253C001B6822F001021A60BB680133BB607A6928
:10254C009A4207D37B681B681B6803F00103002BBE
:10255C00F2D100E000BF7B68012283F835207B6854
:10256C00002283F834207B68DB6C002B05D07B6861
:10257C00DB6C7868984700E000BF1837BD4680BD1B
:10258C0080B485B000AF78607B681B68DBB2103B11
:10259C00144AA2FB03231B09FB60134AFB68134478
:1025AC001B781A467B68DA65FB68032B09D97B68B4
:1025BC001B6823F47F7323F003031A1D7B689A6551
:1025CC0007E07B681B6823F47F7323F003037A68AE
:1025DC0093657B689B6D18461437BD465DF8047B8C
:1025EC00704700BFABAAAAAAB03D000880B485B062
:1025FC0000AF78600023FB737B689B6ABB607B68D1
:10260C009B69002B1FD1BB68032B56D801A252F833
:10261C0023F000BF312600084326000831260008AD
:10262C00C72600087B68DB6A03F08073002B46D05A
:10263C000123FB7343E07B68DB6AB3F1C07F40D1BD
:10264C000123FB733DE07B689B69B3F5005F21D1EF
:10265C00BB68032B37D801A252F823F07926000867
:10266C007F26000879260008912600080123FB73B9
:10267C0030E07B68DB6A03F08073002B25D00123EC
:10268C00FB7322E07B68DB6AB3F1C07F1FD10123AF
:10269C00FB731CE0BB68022B03D9BB68032B03D074
:1026AC0018E00123FB7315E07B68DB6A03F0807391
:1026BC00002B0ED00123FB730BE000BF0AE000BF20
:1026CC0008E000BF06E000BF04E000BF02E000BF6E
:1026DC0000E000BFFB7B18461437BD465DF8047B59
:1026EC00704700BF80B489B000AF786039600023B8
:1026FC007B6100233B610023BB610023FB6177E11D
:10270C000122FB6902FA03F37B613B681B687A695F
:10271C0013403B613A697B699A4240F066813B68A1
:10272C005B6803F00303012B05D03B685B6803F087
:10273C000303022B30D17B689B68BB61FB695B0098
:10274C00032202FA03F3DB43BA691340BB613B6813
:10275C00DA68FB695B0002FA03F3BA691343BB61E5
:10276C007B68BA699A607B685B68BB610122FB6914
:10277C0002FA03F3DB43BA691340BB613B685B6845
:10278C001B0903F00102FB6902FA03F3BA69134354
:10279C00BB617B68BA695A603B685B6803F00303F2
:1027AC00032B17D07B68DB68BB61FB695B000322E2
:1027BC0002FA03F3DB43BA691340BB613B689A68C6
:1027CC00FB695B0002FA03F3BA691343BB617B68D4
:1027DC00BA69DA603B685B6803F00303022B23D110
:1027EC00FB69DA087B68083253F82230BB61FB695D
:1027FC0003F007039B000F2202FA03F3DB43BA69D1
:10280C001340BB613B681A69FB6903F007039B002B
:10281C0002FA03F3BA691343BB61FB69DA087B68FC
:10282C000832B96943F822107B681B68BB61FB69ED
:10283C005B00032202FA03F3DB43BA691340BB616A
:10284C003B685B6803F00302FB695B0002FA03F36D
:10285C00BA691343BB617B68BA691A603B685B68F1
:10286C0003F44033002B00F0C0800023FB60664B68
:10287C005B6C654A43F480435364634B5B6C03F4B9
:10288C008043FB60FB68614AFB699B08023352F88A
:10289C002330BB61FB6903F003039B000F2202FA98
:1028AC0003F3DB43BA691340BB617B68584A93421C
:1028BC0037D07B68574A934231D07B68564A934253
:1028CC002BD07B68554A934225D07B68544A93425F
:1028DC001FD07B68534A934219D07B68524A93426B
:1028EC0013D07B68514A93420DD07B68504A934277
:1028FC0007D07B684F4A934201D1092312E00A2387
:10290C0010E008230EE007230CE006230AE0052361
:10291C0008E0042306E0032304E0022302E0012381
:10292C0000E00023FA6902F0030292009340BA69B6
:10293C001343BB613549FB699B080233BA6941F803
:10294C0023203D4B9B68BB613B69DB43BA69134059
:10295C00BB613B685B6803F48013002B03D0BA693E
:10296C003B691343BB61344ABB699360324BDB68F0
:10297C00BB613B69DB43BA691340BB613B685B6875
:10298C0003F40013002B03D0BA693B691343BB61FA
:10299C00294ABB69D360284B5B68BB613B69DB434D
:1029AC00BA691340BB613B685B6803F40033002BCE
:1029BC0003D0BA693B691343BB611F4ABB695360BF
:1029CC001D4B1B68BB613B69DB43BA691340BB61A0
:1029DC003B685B6803F48033002B03D0BA693B6916
:1029EC001343BB61144ABB691360FB690133FB6180
:1029FC00FB690F2B7FF684AE00BF00BF2437BD46AA
:102A0C005DF8047B704700BF00380240003801407D
:102A1C00000002400004024000080240000C02408A
:102A2C00001002400014024000180240001C02403A
:102A3C000020024000240240003C014080B483B0DE
:102A4C0000AF78600B467B8013467B707B78002B45
:102A5C0003D07A887B689A6103E07B881A047B68D0
:102A6C009A6100BF0C37BD465DF8047B70470000CF
:102A7C0080B582B000AF0346FB80084B5A69FB88D7
:102A8C001340002B06D0054AFB885361FB8818467F
:102A9C0000F006F800BF0837BD4680BD003C014081
:102AAC0080B483B000AF0346FB8000BF0C37BD463B
:102ABC005DF8047B7047000080B582B000AF002346
:102ACC007B6000233B60204B1B6C1F4A43F0805300
:102ADC0013641D4B1B6C03F080533B603B681B4B1A
:102AEC0001221A60FEF732FD786009E0FEF72EFD38
:102AFC0002467B68D31AB3F57A7F01D903231FE012
:102B0C00134B5B6803F48033B3F5803FEED1114B6C
:102B1C0001221A60FEF71AFD786009E0FEF716FD37
:102B2C0002467B68D31AB3F57A7F01D9032307E0F9
:102B3C00074B5B6803F40033B3F5003FEED1002381
:102B4C0018460837BD4680BD0038024040000E4292
:102B5C000070004044000E4280B586B000AF786033
:102B6C007B68002B01D1012367E27B681B6803F0B3
:102B7C000103002B75D0884B9B6803F00C03042BCE
:102B8C000CD0854B9B6803F00C03082B12D1824BA5
:102B9C005B6803F48003B3F5800F0BD17E4B1B688D
:102BAC0003F40033002B5BD07B685B68002B57D1A0
:102BBC00012342E27B685B68B3F5803F06D1764B1C
:102BCC001B68754A43F4803313601DE07B685B68B7
:102BDC00B3F5A02F0CD1704B1B686F4A43F48023C4
:102BEC0013606D4B1B686C4A43F4803313600BE02D
:102BFC00694B1B68684A23F480331360664B1B686F
:102C0C00654A23F4802313607B685B68002B13D028
:102C1C00FEF79CFC386108E0FEF798FC02463B6925
:102C2C00D31A642B01D9032307E25B4B1B6803F413
:102C3C000033002BF0D014E0FEF788FC386108E07C
:102C4C00FEF784FC02463B69D31A642B01D903239B
:102C5C00F3E1514B1B6803F40033002BF0D100E07F
:102C6C0000BF7B681B6803F00203002B63D04A4B48
:102C7C009B6803F00C03002B0BD0474B9B6803F0B5
:102C8C000C03082B1CD1444B5B6803F48003002B12
:102C9C0016D1414B1B6803F00203002B05D07B6857
:102CAC00DB68012B01D00123C7E13B4B1B6823F0F0
:102CBC00F8027B681B69DB00374913430B603AE071
:102CCC007B68DB68002B20D0344B01221A60FEF7A6
:102CDC003DFC386108E0FEF739FC02463B69D31A2B
:102CEC00022B01D90323A8E12B4B1B6803F0020331
:102CFC00002BF0D0284B1B6823F0F8027B681B6973
:102D0C00DB00254913430B6015E0244B00221A60AD
:102D1C00FEF71CFC386108E0FEF718FC02463B6924
:102D2C00D31A022B01D9032387E11B4B1B6803F039
:102D3C000203002BF0D17B681B6803F00803002B07
:102D4C0036D07B685B69002B16D0154B01221A60BC
:102D5C00FEF7FCFB386108E0FEF7F8FB02463B6926
:102D6C00D31A022B01D9032367E10B4B5B6F03F0E2
:102D7C000203002BF0D01BE0094B00221A60FEF777
:102D8C00E5FB38610EE0FEF7E1FB02463B69D31A26
:102D9C00022B07D9032350E10038024000004742C0
:102DAC00800E4742884B5B6F03F00203002BEAD185
:102DBC007B681B6803F00403002B00F09780002352
:102DCC00FB75814B1B6C03F08053002B0FD1002340
:102DDC00BB607D4B1B6C7C4A43F0805313647A4B75
:102DEC001B6C03F08053BB60BB680123FB75774BF6
:102DFC001B6803F48073002B18D1744B1B68734A47
:102E0C0043F480731360FEF7A1FB386108E0FEF712
:102E1C009DFB02463B69D31A022B01D903230CE11B
:102E2C006A4B1B6803F48073002BF0D07B689B68A3
:102E3C00012B06D1644B1B6F634A43F001031367EC
:102E4C001CE07B689B68052B0CD15F4B1B6F5E4AAB
:102E5C0043F0040313675C4B1B6F5B4A43F00103A5
:102E6C0013670BE0584B1B6F574A23F00103136792
:102E7C00554B1B6F544A23F0040313677B689B6804
:102E8C00002B15D0FEF762FB38610AE0FEF75EFB03
:102E9C0002463B69D31A41F28832934201D903238B
:102EAC00CBE0494B1B6F03F00203002BEED014E078
:102EBC00FEF74CFB38610AE0FEF748FB02463B6923
:102ECC00D31A41F28832934201D90323B5E03E4B29
:102EDC001B6F03F00203002BEED1FB7D012B05D100
:102EEC00394B1B6C384A23F0805313647B689B6905
:102EFC00002B00F0A180344B9B6803F00C03082BD3
:102F0C005CD07B689B69022B41D1314B00221A604B
:102F1C00FEF71CFB386108E0FEF718FB02463B6924
:102F2C00D31A022B01D9032387E0274B1B6803F02C
:102F3C000073002BF0D17B68DA697B681B6A1A433B
:102F4C007B685B6A9B011A437B689B6A5B08013B4D
:102F5C001B041A437B68DB6A1B061B4913434B603B
:102F6C001B4B01221A60FEF7F1FA386108E0FEF7FC
:102F7C00EDFA02463B69D31A022B01D903235CE01C
:102F8C00114B1B6803F00073002BF0D054E0104B76
:102F9C0000221A60FEF7DAFA386108E0FEF7D6FA7A
:102FAC0002463B69D31A022B01D9032345E0064B99
:102FBC001B6803F00073002BF0D13DE07B689B692C
:102FCC00012B07D1012338E000380240007000408B
:102FDC00600047421B4B5B68FB607B689B69012B65
:102FEC0028D0FB6803F480027B68DB699A4221D10C
:102FFC00FB6803F03F027B681B6A9A421AD1FA689D
:10300C0047F6C07313407A68526A9201934211D109
:10301C00FB6803F440327B689B6A5B08013B1B0432
:10302C009A4207D1FB6803F070627B68DB6A1B066F
:10303C009A4201D0012300E0002318461837BD4600
:10304C0080BD00BF0038024080B584B000AF78600E
:10305C0039607B68002B01D10123CCE0684B1B68E5
:10306C0003F00F033A689A420CD9654B3A68D2B216
:10307C001A70634B1B6803F00F033A689A4201D035
:10308C000123B8E07B681B6803F00203002B20D0FF
:10309C007B681B6803F00403002B05D0594B9B681D
:1030AC00584A43F4E05393607B681B6803F00803B1
:1030BC00002B05D0534B9B68524A43F460439360FA
:1030CC00504B9B6823F0F0027B689B684D4913437F
:1030DC008B607B681B6803F00103002B44D07B687A
:1030EC005B68012B07D1474B1B6803F40033002BA3
:1030FC0019D101237FE07B685B68022B03D07B68CE
:10310C005B68032B07D13F4B1B6803F00073002B4C
:10311C0009D101236FE03B4B1B6803F00203002B2A
:10312C0001D1012367E0374B9B6823F003027B68D6
:10313C005B68344913438B60FEF708FAF8600AE0C9
:10314C00FEF704FA0246FB68D31A41F28832934226
:10315C0001D903234FE02B4B9B6803F00C027B68D7
:10316C005B689B009A42EBD1254B1B6803F00F0365
:10317C003A689A420CD2224B3A68D2B21A70204B5F
:10318C001B6803F00F033A689A4201D0012332E026
:10319C007B681B6803F00403002B08D0194B9B6859
:1031AC0023F4E0527B68DB68164913438B607B6821
:1031BC001B6803F00803002B09D0124B9B6823F407
:1031CC0060427B681B69DB000E4913438B6000F087
:1031DC0021F802460B4B9B681B0903F00F030A49AD
:1031EC00CB5C22FA03F3094A1360094B1B6818469F
:1031FC00FEF768F9002318461037BD4680BD00BFA6
:10320C00003C024000380240A03D000808000020AD
:10321C000C0000202DE9B04F94B000AF00237B646C
:10322C000023FB6400233B640023BB64794B9B6845
:10323C0003F00C03082B0DD0082B00F2E180002BBF
:10324C0002D0042B03D0DBE0734BBB64DBE0734B8D
:10325C00BB64D8E06F4B5B6803F03F037B646D4B42
:10326C005B6803F48003002B63D06A4B5B689B099B
:10327C000022BB63FA63BB6BC3F308033B630023FD
:10328C007B63D7E90C4522462B464FF000004FF0EC
:10329C000001590141EAD261500102460B46214618
:1032AC00511A3961294663EB01037B614FF000022F
:1032BC004FF00003D7E904AB59468B01514643EA62
:1032CC00916351468A015146B2EB0108594663EBB2
:1032DC0001094FF000024FF000034FEAC90343EA23
:1032EC0058734FEAC80290469946234618EB0303DD
:1032FC00BB602B4649EB0303FB604FF000024FF021
:10330C000003D7E9024529464B02214643EAD15333
:10331C0021464A02104619467B6C0022BB62FA62B7
:10332C00D7E90A23FDF792FA02460B461346FB64D3
:10333C0058E0384B5B689B09002218461146C0F3D5
:10334C0008033B6200237B62D7E9088942464B465F
:10335C004FF000004FF00001590141EAD2615001D9
:10336C0002460B464146B2EB010A494663EB010BA0
:10337C004FF000024FF000034FEA8B1343EA9A63BD
:10338C004FEA8A12B2EB0A0463EB0B054FF0000212
:10339C004FF00003EB0043EA5473E20014461D4661
:1033AC004346E3183B604B4645EB03037B604FF011
:1033BC0000024FF00003D7E9004529468B02214655
:1033CC0043EA915321468A02104619467B6C00222F
:1033DC00BB61FA61D7E90623FDF738FA02460B46C2
:1033EC001346FB640B4B5B681B0C03F003030133AC
:1033FC005B003B64FA6C3B6CB2FBF3F3BB6402E026
:10340C00054BBB6400BFBB6C18465037BD46BDE8CE
:10341C00B08F00BF003802400024F40000127A0084
:10342C0080B582B000AF78607B68002B01D101239E
:10343C0041E07B6893F83D30DBB2002B06D17B6812
:10344C00002283F83C207868FDF766FF7B68022237
:10345C0083F83D207B681A687B6804331946104654
:10346C0000F096FA7B68012283F846207B680122E3
:10347C0083F83E207B68012283F83F207B68012281
:10348C0083F840207B68012283F841207B6801226D
:10349C0083F842207B68012283F843207B68012259
:1034AC0083F844207B68012283F845207B68012245
:1034BC0083F83D20002318460837BD4680BD000028
:1034CC0080B485B000AF78607B6893F83D30DBB298
:1034DC00012B01D001234EE07B68022283F83D20B2
:1034EC007B681B68DA687B681B6842F00102DA6053
:1034FC007B681B68234A934222D07B681B68B3F11C
:10350C00804F1DD07B681B681F4A934218D07B6884
:10351C001B681E4A934213D07B681B681C4A93425B
:10352C000ED07B681B681B4A934209D07B681B68D2
:10353C00194A934204D07B681B68184A934211D1F4
:10354C007B681B689B6803F00703FB60FB68062B1A
:10355C0010D07B681B681A687B681B6842F00102FC
:10356C001A6007E07B681B681A687B681B6842F06E
:10357C0001021A60002318461437BD465DF8047B1F
:10358C00704700BF000001400004004000080040EC
:10359C00000C0040000401400040014000180040B5
:1035AC0080B582B000AF78607B681B681B6903F044
:1035BC000203022B22D17B681B68DB6803F0020339
:1035CC00022B1BD17B681B686FF002021A617B68AF
:1035DC0001221A777B681B689B6903F00303002B9D
:1035EC0003D0786800F0B5F905E0786800F0A7F929
:1035FC00786800F0B8F97B6800221A777B681B6842
:10360C001B6903F00403042B22D17B681B68DB6865
:10361C0003F00403042B1BD17B681B686FF00402BE
:10362C001A617B6802221A777B681B689B6903F41A
:10363C004073002B03D0786800F08BF905E07868B4
:10364C0000F07DF9786800F08EF97B6800221A771B
:10365C007B681B681B6903F00803082B22D17B686D
:10366C001B68DB6803F00803082B1BD17B681B6805
:10367C006FF008021A617B6804221A777B681B685A
:10368C00DB6903F00303002B03D0786800F061F9C9
:10369C0005E0786800F053F9786800F064F97B680D
:1036AC0000221A777B681B681B6903F01003102B30
:1036BC0022D17B681B68DB6803F01003102B1BD135
:1036CC007B681B686FF010021A617B6808221A77FE
:1036DC007B681B68DB6903F44073002B03D07868AC
:1036EC0000F037F905E0786800F029F9786800F007
:1036FC003AF97B6800221A777B681B681B6903F018
:10370C000103012B0ED17B681B68DB6803F00103FE
:10371C00012B07D17B681B686FF001021A61786876
:10372C00FDF712FA7B681B681B6903F08003802B82
:10373C000ED17B681B68DB6803F08003802B07D1FC
:10374C007B681B686FF080021A61786800F0E0FA01
:10375C007B681B681B6903F04003402B0ED17B6810
:10376C001B68DB6803F04003402B07D17B681B68A8
:10377C006FF040021A61786800F0FFF87B681B68F4
:10378C001B6903F02003202B0ED17B681B68DB68C0
:10379C0003F02003202B07D17B681B686FF02002FD
:1037AC001A61786800F0AAFA00BF0837BD4680BDE0
:1037BC0080B584B000AF786039600023FB737B6800
:1037CC0093F83C30012B01D10223B4E07B68012239
:1037DC0083F83C207B68022283F83D207B681B68C1
:1037EC009B68BB60BB6823F07703BB60BB6823F4AA
:1037FC007F43BB607B681B68BA689A603B681B6838
:10380C00B3F5005F3ED0B3F5005F00F28780B3F5EF
:10381C00805F00F08680B3F5805F7FD8702B1AD064
:10382C00702B7BD8602B50D0602B77D8502B3CD092
:10383C00502B73D8402B58D0402B6FD8302B64D0E2
:10384C00302B6BD8202B60D0202B67D8002B5CD072
:10385C00102B5AD062E07B6818683B6899683B680B
:10386C005A683B68DB6800F0ADF97B681B689B68A5
:10387C00BB60BB6843F07703BB607B681B68BA68AE
:10388C009A604FE07B6818683B6899683B685A6897
:10389C003B68DB6800F096F97B681B689A687B686C
:1038AC001B6842F480429A603CE07B6818683B6875
:1038BC0059683B68DB681A4600F00AF97B681B689C
:1038CC005021184600F063F92CE07B6818683B68BF
:1038DC0059683B68DB681A4600F029F97B681B685D
:1038EC006021184600F053F91CE07B6818683B68AF
:1038FC0059683B68DB681A4600F0EAF87B681B687D
:10390C004021184600F043F90CE07B681A683B68CC
:10391C001B681946104600F03AF903E00123FB73CB
:10392C0000E000BF7B68012283F83D207B68002209
:10393C0083F83C20FB7B18461037BD4680BD80B415
:10394C0083B000AF786000BF0C37BD465DF8047BD8
:10395C00704780B483B000AF786000BF0C37BD46B1
:10396C005DF8047B704780B483B000AF786000BF13
:10397C000C37BD465DF8047B704780B483B000AF54
:10398C00786000BF0C37BD465DF8047B70470000C3
:10399C0080B485B000AF786039607B681B68FB60D1
:1039AC007B68404A934213D07B68B3F1804F0FD0B1
:1039BC007B683D4A93420BD07B683C4A934207D0CC
:1039CC007B683B4A934203D07B683A4A934208D1C6
:1039DC00FB6823F07003FB603B685B68FA68134379
:1039EC00FB607B682F4A93422BD07B68B3F1804FEE
:1039FC0027D07B682C4A934223D07B682B4A934276
:103A0C001FD07B682A4A93421BD07B68294A934279
:103A1C0017D07B68284A934213D07B68274A93427D
:103A2C000FD07B68264A93420BD07B68254A934281
:103A3C0007D07B68244A934203D07B68234A934285
:103A4C0008D1FB6823F44073FB603B68DB68FA68C1
:103A5C001343FB60FB6823F080023B685B691343F4
:103A6C00FB607B68FA681A603B689A687B68DA626C
:103A7C003B681A687B689A627B680A4A934203D057
:103A8C007B680C4A934203D13B681A697B681A63C2
:103A9C007B6801225A6100BF1437BD465DF8047B78
:103AAC00704700BF000001400004004000080040C7
:103ABC00000C004000040140004001400044014063
:103ACC000048014000180040001C0040002000404D
:103ADC0080B487B000AFF860B9607A60FB681B6A8D
:103AEC007B61FB681B6A23F00102FB681A62FB68AE
:103AFC009B693B613B6923F0F0033B617B681B01D5
:103B0C003A6913433B617B6923F00A037B617A6951
:103B1C00BB6813437B61FB683A699A61FB687A69FD
:103B2C001A6200BF1C37BD465DF8047B704780B439
:103B3C0087B000AFF860B9607A60FB681B6A23F04D
:103B4C001002FB681A62FB689B697B61FB681B6A4D
:103B5C003B617B6923F470437B617B681B037A694F
:103B6C0013437B613B6923F0A0033B61BB681B01E2
:103B7C003A6913433B61FB687A699A61FB683A695D
:103B8C001A6200BF1C37BD465DF8047B704780B4D9
:103B9C0085B000AF786039607B689B68FB60FB6820
:103BAC0023F07003FB603A68FB68134343F0070390
:103BBC00FB607B68FA689A6000BF1437BD465DF8FD
:103BCC00047B704780B487B000AFF860B9607A604E
:103BDC003B60FB689B687B617B6923F47F437B6163
:103BEC003B681A027B681A43BB6813437A69134318
:103BFC007B61FB687A699A6000BF1C37BD465DF833
:103C0C00047B704780B485B000AF786039607B6806
:103C1C0093F83C30012B01D102235AE07B6801223E
:103C2C0083F83C207B68022283F83D207B681B686C
:103C3C005B68FB607B681B689B68BB60FB6823F060
:103C4C007003FB603B681B68FA681343FB607B687E
:103C5C001B68FA685A607B681B68214A934222D021
:103C6C007B681B68B3F1804F1DD07B681B681D4AB5
:103C7C00934218D07B681B681B4A934213D07B6815
:103C8C001B681A4A93420ED07B681B68184A9342F1
:103C9C0009D07B681B68174A934204D07B681B6869
:103CAC00154A93420CD1BB6823F08003BB603B6880
:103CBC005B68BA681343BB607B681B68BA689A6020
:103CCC007B68012283F83D207B68002283F83C202E
:103CDC00002318461437BD465DF8047B704700BFBF
:103CEC00000001400004004000080040000C0040AF
:103CFC0000040140004001400018004080B483B033
:103D0C0000AF786000BF0C37BD465DF8047B704790
:103D1C0080B483B000AF786000BF0C37BD465DF84F
:103D2C00047B704702440346934200D1704703F86A
:103D3C00011BF9E770B50D4D0D4C641BA41000264A
:103D4C00A64209D10B4D0C4C00F018F8641BA410C2
:103D5C000026A64205D170BD55F8043B98470136A4
:103D6C00EEE755F8043B98470136F2E7C03D0008F2
:103D7C00C03D0008C03D0008C43D0008F8B500BFB8
:103D8C00F8BC08BC9E467047F8B500BFF8BC08BC30
:043D9C009E46704788
:103DA00000000000000000000102030406070809EB
:083DB0000006101600061016B3
:083DB800D0CAFF7F01000000EA
:043DC000D101000825
:043DC400AD01000845
:103DC800DB0F49400000FF440024F400100000000D
:043DD80001000000E6
:0400000508001439A2
:00000001FF
